{
    "_format": "hh-sol-artifact-1",
    "contractName": "Transactions",
    "sourceName": "contracts/Transactions.sol",
    "abi": [
        {
            "anonymous": false,
            "inputs": [
                {
                    "indexed": false,
                    "internalType": "address",
                    "name": "from",
                    "type": "address"
                },
                {
                    "indexed": false,
                    "internalType": "address",
                    "name": "receiver",
                    "type": "address"
                },
                {
                    "indexed": false,
                    "internalType": "uint256",
                    "name": "amount",
                    "type": "uint256"
                },
                {
                    "indexed": false,
                    "internalType": "string",
                    "name": "message",
                    "type": "string"
                },
                {
                    "indexed": false,
                    "internalType": "uint256",
                    "name": "timestamp",
                    "type": "uint256"
                },
                {
                    "indexed": false,
                    "internalType": "string",
                    "name": "keyword",
                    "type": "string"
                }
            ],
            "name": "Transfer",
            "type": "event"
        },
        {
            "inputs": [
                {
                    "internalType": "address payable",
                    "name": "receiver",
                    "type": "address"
                },
                {
                    "internalType": "uint256",
                    "name": "amount",
                    "type": "uint256"
                },
                {
                    "internalType": "string",
                    "name": "message",
                    "type": "string"
                },
                {
                    "internalType": "string",
                    "name": "keyword",
                    "type": "string"
                }
            ],
            "name": "add",
            "outputs": [],
            "stateMutability": "nonpayable",
            "type": "function"
        },
        {
            "inputs": [],
            "name": "getTransactionCount",
            "outputs": [
                {
                    "internalType": "uint256",
                    "name": "",
                    "type": "uint256"
                }
            ],
            "stateMutability": "view",
            "type": "function"
        },
        {
            "inputs": [],
            "name": "getTransactions",
            "outputs": [
                {
                    "components": [
                        {
                            "internalType": "address",
                            "name": "sender",
                            "type": "address"
                        },
                        {
                            "internalType": "address",
                            "name": "receiver",
                            "type": "address"
                        },
                        {
                            "internalType": "uint256",
                            "name": "amount",
                            "type": "uint256"
                        },
                        {
                            "internalType": "string",
                            "name": "message",
                            "type": "string"
                        },
                        {
                            "internalType": "uint256",
                            "name": "timestamp",
                            "type": "uint256"
                        },
                        {
                            "internalType": "string",
                            "name": "keyword",
                            "type": "string"
                        }
                    ],
                    "internalType": "struct Transactions.TransferStruct[]",
                    "name": "",
                    "type": "tuple[]"
                }
            ],
            "stateMutability": "view",
            "type": "function"
        }
    ],
    "bytecode": "0x608060405234801561001057600080fd5b50610e0c806100206000396000f3fe608060405234801561001057600080fd5b50600436106100415760003560e01c80632e7700f0146100465780635f89d3831461006457806383920e9014610080575b600080fd5b61004e61009e565b60405161005b91906104b7565b60405180910390f35b61007e600480360381019061007991906106b6565b6100a7565b005b61008861025b565b6040516100959190610956565b60405180910390f35b60008054905090565b60016000808282546100b991906109a7565b9250508190555060016040518060c001604052803373ffffffffffffffffffffffffffffffffffffffff1681526020018673ffffffffffffffffffffffffffffffffffffffff16815260200185815260200184815260200142815260200183815250908060018154018082558091505060019003906000526020600020906006020160009091909190915060008201518160000160006101000a81548173ffffffffffffffffffffffffffffffffffffffff021916908373ffffffffffffffffffffffffffffffffffffffff16021790555060208201518160010160006101000a81548173ffffffffffffffffffffffffffffffffffffffff021916908373ffffffffffffffffffffffffffffffffffffffff1602179055506040820151816002015560608201518160030190816101f19190610be7565b506080820151816004015560a08201518160050190816102119190610be7565b5050507f416cfa4330a4565f45c2fd2dd4826a83a37443aba2ce6f79477c7355afac35fa33858585428660405161024d96959493929190610d67565b60405180910390a150505050565b60606001805480602002602001604051908101604052809291908181526020016000905b8282101561049557838290600052602060002090600602016040518060c00160405290816000820160009054906101000a900473ffffffffffffffffffffffffffffffffffffffff1673ffffffffffffffffffffffffffffffffffffffff1673ffffffffffffffffffffffffffffffffffffffff1681526020016001820160009054906101000a900473ffffffffffffffffffffffffffffffffffffffff1673ffffffffffffffffffffffffffffffffffffffff1673ffffffffffffffffffffffffffffffffffffffff1681526020016002820154815260200160038201805461036890610a0a565b80601f016020809104026020016040519081016040528092919081815260200182805461039490610a0a565b80156103e15780601f106103b6576101008083540402835291602001916103e1565b820191906000526020600020905b8154815290600101906020018083116103c457829003601f168201915b505050505081526020016004820154815260200160058201805461040490610a0a565b80601f016020809104026020016040519081016040528092919081815260200182805461043090610a0a565b801561047d5780601f106104525761010080835404028352916020019161047d565b820191906000526020600020905b81548152906001019060200180831161046057829003601f168201915b5050505050815250508152602001906001019061027f565b50505050905090565b6000819050919050565b6104b18161049e565b82525050565b60006020820190506104cc60008301846104a8565b92915050565b6000604051905090565b600080fd5b600080fd5b600073ffffffffffffffffffffffffffffffffffffffff82169050919050565b6000610511826104e6565b9050919050565b61052181610506565b811461052c57600080fd5b50565b60008135905061053e81610518565b92915050565b61054d8161049e565b811461055857600080fd5b50565b60008135905061056a81610544565b92915050565b600080fd5b600080fd5b6000601f19601f8301169050919050565b7f4e487b7100000000000000000000000000000000000000000000000000000000600052604160045260246000fd5b6105c38261057a565b810181811067ffffffffffffffff821117156105e2576105e161058b565b5b80604052505050565b60006105f56104d2565b905061060182826105ba565b919050565b600067ffffffffffffffff8211156106215761062061058b565b5b61062a8261057a565b9050602081019050919050565b82818337600083830152505050565b600061065961065484610606565b6105eb565b90508281526020810184848401111561067557610674610575565b5b610680848285610637565b509392505050565b600082601f83011261069d5761069c610570565b5b81356106ad848260208601610646565b91505092915050565b600080600080608085870312156106d0576106cf6104dc565b5b60006106de8782880161052f565b94505060206106ef8782880161055b565b935050604085013567ffffffffffffffff8111156107105761070f6104e1565b5b61071c87828801610688565b925050606085013567ffffffffffffffff81111561073d5761073c6104e1565b5b61074987828801610688565b91505092959194509250565b600081519050919050565b600082825260208201905092915050565b6000819050602082019050919050565b600061078c826104e6565b9050919050565b61079c81610781565b82525050565b6107ab8161049e565b82525050565b600081519050919050565b600082825260208201905092915050565b60005b838110156107eb5780820151818401526020810190506107d0565b60008484015250505050565b6000610802826107b1565b61080c81856107bc565b935061081c8185602086016107cd565b6108258161057a565b840191505092915050565b600060c0830160008301516108486000860182610793565b50602083015161085b6020860182610793565b50604083015161086e60408601826107a2565b506060830151848203606086015261088682826107f7565b915050608083015161089b60808601826107a2565b5060a083015184820360a08601526108b382826107f7565b9150508091505092915050565b60006108cc8383610830565b905092915050565b6000602082019050919050565b60006108ec82610755565b6108f68185610760565b93508360208202850161090885610771565b8060005b85811015610944578484038952815161092585826108c0565b9450610930836108d4565b925060208a0199505060018101905061090c565b50829750879550505050505092915050565b6000602082019050818103600083015261097081846108e1565b905092915050565b7f4e487b7100000000000000000000000000000000000000000000000000000000600052601160045260246000fd5b60006109b28261049e565b91506109bd8361049e565b92508282019050808211156109d5576109d4610978565b5b92915050565b7f4e487b7100000000000000000000000000000000000000000000000000000000600052602260045260246000fd5b60006002820490506001821680610a2257607f821691505b602082108103610a3557610a346109db565b5b50919050565b60008190508160005260206000209050919050565b60006020601f8301049050919050565b600082821b905092915050565b600060088302610a9d7fffffffffffffffffffffffffffffffffffffffffffffffffffffffffffffffff82610a60565b610aa78683610a60565b95508019841693508086168417925050509392505050565b6000819050919050565b6000610ae4610adf610ada8461049e565b610abf565b61049e565b9050919050565b6000819050919050565b610afe83610ac9565b610b12610b0a82610aeb565b848454610a6d565b825550505050565b600090565b610b27610b1a565b610b32818484610af5565b505050565b5b81811015610b5657610b4b600082610b1f565b600181019050610b38565b5050565b601f821115610b9b57610b6c81610a3b565b610b7584610a50565b81016020851015610b84578190505b610b98610b9085610a50565b830182610b37565b50505b505050565b600082821c905092915050565b6000610bbe60001984600802610ba0565b1980831691505092915050565b6000610bd78383610bad565b9150826002028217905092915050565b610bf0826107b1565b67ffffffffffffffff811115610c0957610c0861058b565b5b610c138254610a0a565b610c1e828285610b5a565b600060209050601f831160018114610c515760008415610c3f578287015190505b610c498582610bcb565b865550610cb1565b601f198416610c5f86610a3b565b60005b82811015610c8757848901518255600182019150602085019450602081019050610c62565b86831015610ca45784890151610ca0601f891682610bad565b8355505b6001600288020188555050505b505050505050565b610cc281610781565b82525050565b6000610ce3610cde610cd9846104e6565b610abf565b6104e6565b9050919050565b6000610cf582610cc8565b9050919050565b6000610d0782610cea565b9050919050565b610d1781610cfc565b82525050565b600082825260208201905092915050565b6000610d39826107b1565b610d438185610d1d565b9350610d538185602086016107cd565b610d5c8161057a565b840191505092915050565b600060c082019050610d7c6000830189610cb9565b610d896020830188610d0e565b610d9660408301876104a8565b8181036060830152610da88186610d2e565b9050610db760808301856104a8565b81810360a0830152610dc98184610d2e565b905097965050505050505056fea2646970667358221220f25291a055affb6a4afdb4a59fdee0f28b755bd4311dae7efedb7682040f8fa264736f6c63430008120033",
    "linkReferences": {},
    "deployedLinkReferences": {}
}