{
    "_format": "hh-sol-artifact-1",
    "contractName": "UserData",
    "sourceName": "contracts/UserData.sol",
    "abi": [
        {
            "anonymous": false,
            "inputs": [
                {
                    "indexed": false,
                    "internalType": "address",
                    "name": "userID",
                    "type": "address"
                },
                {
                    "indexed": false,
                    "internalType": "string",
                    "name": "userName",
                    "type": "string"
                },
                {
                    "indexed": false,
                    "internalType": "bytes32",
                    "name": "userPassword",
                    "type": "bytes32"
                },
                {
                    "indexed": false,
                    "internalType": "string",
                    "name": "vehicleNumber",
                    "type": "string"
                },
                {
                    "indexed": false,
                    "internalType": "string",
                    "name": "licenseNumber",
                    "type": "string"
                },
                {
                    "indexed": false,
                    "internalType": "uint256",
                    "name": "mobileNumber",
                    "type": "uint256"
                }
            ],
            "name": "AccountCreated",
            "type": "event"
        },
        {
            "inputs": [
                {
                    "internalType": "string",
                    "name": "name",
                    "type": "string"
                },
                {
                    "internalType": "bytes",
                    "name": "password",
                    "type": "bytes"
                },
                {
                    "internalType": "string",
                    "name": "vehicle",
                    "type": "string"
                },
                {
                    "internalType": "string",
                    "name": "license",
                    "type": "string"
                },
                {
                    "internalType": "uint256",
                    "name": "number",
                    "type": "uint256"
                }
            ],
            "name": "addToBlockchain",
            "outputs": [],
            "stateMutability": "nonpayable",
            "type": "function"
        },
        {
            "inputs": [],
            "name": "getData",
            "outputs": [
                {
                    "components": [
                        {
                            "internalType": "address",
                            "name": "MetaMaskId",
                            "type": "address"
                        },
                        {
                            "internalType": "string",
                            "name": "name",
                            "type": "string"
                        },
                        {
                            "internalType": "bytes32",
                            "name": "password",
                            "type": "bytes32"
                        },
                        {
                            "internalType": "string",
                            "name": "VehicleNumber",
                            "type": "string"
                        },
                        {
                            "internalType": "string",
                            "name": "licenseNumber",
                            "type": "string"
                        },
                        {
                            "internalType": "uint256",
                            "name": "mobile",
                            "type": "uint256"
                        }
                    ],
                    "internalType": "struct UserData.UserStruct[]",
                    "name": "",
                    "type": "tuple[]"
                }
            ],
            "stateMutability": "view",
            "type": "function"
        }
    ],
    "bytecode": "0x608060405234801561001057600080fd5b50610f1e806100206000396000f3fe608060405234801561001057600080fd5b50600436106100365760003560e01c80633bc5de301461003b578063454baeb314610059575b600080fd5b610043610075565b6040516100509190610743565b60405180910390f35b610073600480360381019061006e919061097b565b6102f4565b005b60606000805480602002602001604051908101604052809291908181526020016000905b828210156102eb57838290600052602060002090600602016040518060c00160405290816000820160009054906101000a900473ffffffffffffffffffffffffffffffffffffffff1673ffffffffffffffffffffffffffffffffffffffff1673ffffffffffffffffffffffffffffffffffffffff16815260200160018201805461012290610a95565b80601f016020809104026020016040519081016040528092919081815260200182805461014e90610a95565b801561019b5780601f106101705761010080835404028352916020019161019b565b820191906000526020600020905b81548152906001019060200180831161017e57829003601f168201915b50505050508152602001600282015481526020016003820180546101be90610a95565b80601f01602080910402602001604051908101604052809291908181526020018280546101ea90610a95565b80156102375780601f1061020c57610100808354040283529160200191610237565b820191906000526020600020905b81548152906001019060200180831161021a57829003601f168201915b5050505050815260200160048201805461025090610a95565b80601f016020809104026020016040519081016040528092919081815260200182805461027c90610a95565b80156102c95780601f1061029e576101008083540402835291602001916102c9565b820191906000526020600020905b8154815290600101906020018083116102ac57829003601f168201915b5050505050815260200160058201548152505081526020019060010190610099565b50505050905090565b60006040518060c001604052803373ffffffffffffffffffffffffffffffffffffffff1681526020018781526020016002876040516103339190610b0d565b602060405180830381855afa158015610350573d6000803e3d6000fd5b5050506040513d601f19601f820116820180604052508101906103739190610b50565b815260200185815260200184815260200183815250908060018154018082558091505060019003906000526020600020906006020160009091909190915060008201518160000160006101000a81548173ffffffffffffffffffffffffffffffffffffffff021916908373ffffffffffffffffffffffffffffffffffffffff160217905550602082015181600101908161040d9190610d29565b5060408201518160020155606082015181600301908161042d9190610d29565b5060808201518160040190816104439190610d29565b5060a0820151816005015550507f26e71cde24c161e6ff41157a7f045e6d1cf418a14a59b56d41aec31ce73f3acb33866002876040516104839190610b0d565b602060405180830381855afa1580156104a0573d6000803e3d6000fd5b5050506040513d601f19601f820116820180604052508101906104c39190610b50565b8686866040516104d896959493929190610e72565b60405180910390a15050505050565b600081519050919050565b600082825260208201905092915050565b6000819050602082019050919050565b600073ffffffffffffffffffffffffffffffffffffffff82169050919050565b600061053e82610513565b9050919050565b61054e81610533565b82525050565b600081519050919050565b600082825260208201905092915050565b60005b8381101561058e578082015181840152602081019050610573565b60008484015250505050565b6000601f19601f8301169050919050565b60006105b682610554565b6105c0818561055f565b93506105d0818560208601610570565b6105d98161059a565b840191505092915050565b6000819050919050565b6105f7816105e4565b82525050565b6000819050919050565b610610816105fd565b82525050565b600060c08301600083015161062e6000860182610545565b506020830151848203602086015261064682826105ab565b915050604083015161065b60408601826105ee565b506060830151848203606086015261067382826105ab565b9150506080830151848203608086015261068d82826105ab565b91505060a08301516106a260a0860182610607565b508091505092915050565b60006106b98383610616565b905092915050565b6000602082019050919050565b60006106d9826104e7565b6106e381856104f2565b9350836020820285016106f585610503565b8060005b85811015610731578484038952815161071285826106ad565b945061071d836106c1565b925060208a019950506001810190506106f9565b50829750879550505050505092915050565b6000602082019050818103600083015261075d81846106ce565b905092915050565b6000604051905090565b600080fd5b600080fd5b600080fd5b600080fd5b7f4e487b7100000000000000000000000000000000000000000000000000000000600052604160045260246000fd5b6107bb8261059a565b810181811067ffffffffffffffff821117156107da576107d9610783565b5b80604052505050565b60006107ed610765565b90506107f982826107b2565b919050565b600067ffffffffffffffff82111561081957610818610783565b5b6108228261059a565b9050602081019050919050565b82818337600083830152505050565b600061085161084c846107fe565b6107e3565b90508281526020810184848401111561086d5761086c61077e565b5b61087884828561082f565b509392505050565b600082601f83011261089557610894610779565b5b81356108a584826020860161083e565b91505092915050565b600067ffffffffffffffff8211156108c9576108c8610783565b5b6108d28261059a565b9050602081019050919050565b60006108f26108ed846108ae565b6107e3565b90508281526020810184848401111561090e5761090d61077e565b5b61091984828561082f565b509392505050565b600082601f83011261093657610935610779565b5b81356109468482602086016108df565b91505092915050565b610958816105fd565b811461096357600080fd5b50565b6000813590506109758161094f565b92915050565b600080600080600060a086880312156109975761099661076f565b5b600086013567ffffffffffffffff8111156109b5576109b4610774565b5b6109c188828901610880565b955050602086013567ffffffffffffffff8111156109e2576109e1610774565b5b6109ee88828901610921565b945050604086013567ffffffffffffffff811115610a0f57610a0e610774565b5b610a1b88828901610880565b935050606086013567ffffffffffffffff811115610a3c57610a3b610774565b5b610a4888828901610880565b9250506080610a5988828901610966565b9150509295509295909350565b7f4e487b7100000000000000000000000000000000000000000000000000000000600052602260045260246000fd5b60006002820490506001821680610aad57607f821691505b602082108103610ac057610abf610a66565b5b50919050565b600081519050919050565b600081905092915050565b6000610ae782610ac6565b610af18185610ad1565b9350610b01818560208601610570565b80840191505092915050565b6000610b198284610adc565b915081905092915050565b610b2d816105e4565b8114610b3857600080fd5b50565b600081519050610b4a81610b24565b92915050565b600060208284031215610b6657610b6561076f565b5b6000610b7484828501610b3b565b91505092915050565b60008190508160005260206000209050919050565b60006020601f8301049050919050565b600082821b905092915050565b600060088302610bdf7fffffffffffffffffffffffffffffffffffffffffffffffffffffffffffffffff82610ba2565b610be98683610ba2565b95508019841693508086168417925050509392505050565b6000819050919050565b6000610c26610c21610c1c846105fd565b610c01565b6105fd565b9050919050565b6000819050919050565b610c4083610c0b565b610c54610c4c82610c2d565b848454610baf565b825550505050565b600090565b610c69610c5c565b610c74818484610c37565b505050565b5b81811015610c9857610c8d600082610c61565b600181019050610c7a565b5050565b601f821115610cdd57610cae81610b7d565b610cb784610b92565b81016020851015610cc6578190505b610cda610cd285610b92565b830182610c79565b50505b505050565b600082821c905092915050565b6000610d0060001984600802610ce2565b1980831691505092915050565b6000610d198383610cef565b9150826002028217905092915050565b610d3282610554565b67ffffffffffffffff811115610d4b57610d4a610783565b5b610d558254610a95565b610d60828285610c9c565b600060209050601f831160018114610d935760008415610d81578287015190505b610d8b8582610d0d565b865550610df3565b601f198416610da186610b7d565b60005b82811015610dc957848901518255600182019150602085019450602081019050610da4565b86831015610de65784890151610de2601f891682610cef565b8355505b6001600288020188555050505b505050505050565b610e0481610533565b82525050565b600082825260208201905092915050565b6000610e2682610554565b610e308185610e0a565b9350610e40818560208601610570565b610e498161059a565b840191505092915050565b610e5d816105e4565b82525050565b610e6c816105fd565b82525050565b600060c082019050610e876000830189610dfb565b8181036020830152610e998188610e1b565b9050610ea86040830187610e54565b8181036060830152610eba8186610e1b565b90508181036080830152610ece8185610e1b565b9050610edd60a0830184610e63565b97965050505050505056fea2646970667358221220ae960d7485f1ccd9a59f03be49f4c8c48b1b1a8b6b9d5c7c70869f9fa41dc0f064736f6c63430008120033",
    "linkReferences": {},
    "deployedLinkReferences": {}
}